{
  "_format": "hh-sol-artifact-1",
  "contractName": "GroatGame",
  "sourceName": "contracts/GroatGame.sol",
  "abi": [
    {
      "inputs": [
        {
          "internalType": "uint256",
          "name": "_stake",
          "type": "uint256"
        },
        {
          "internalType": "uint256",
          "name": "_max_players",
          "type": "uint256"
        }
      ],
      "stateMutability": "nonpayable",
      "type": "constructor"
    },
    {
      "inputs": [],
      "name": "depositEth",
      "outputs": [],
      "stateMutability": "payable",
      "type": "function"
    },
    {
      "inputs": [],
      "name": "entrance_fee",
      "outputs": [
        {
          "internalType": "uint256",
          "name": "",
          "type": "uint256"
        }
      ],
      "stateMutability": "view",
      "type": "function"
    },
    {
      "inputs": [],
      "name": "game_end_marker",
      "outputs": [
        {
          "internalType": "uint256",
          "name": "",
          "type": "uint256"
        }
      ],
      "stateMutability": "view",
      "type": "function"
    },
    {
      "inputs": [],
      "name": "head",
      "outputs": [
        {
          "internalType": "uint256",
          "name": "",
          "type": "uint256"
        }
      ],
      "stateMutability": "view",
      "type": "function"
    },
    {
      "inputs": [
        {
          "internalType": "uint256",
          "name": "",
          "type": "uint256"
        }
      ],
      "name": "id_entries",
      "outputs": [
        {
          "internalType": "uint256",
          "name": "prev",
          "type": "uint256"
        },
        {
          "internalType": "uint256",
          "name": "next",
          "type": "uint256"
        },
        {
          "internalType": "address",
          "name": "player",
          "type": "address"
        }
      ],
      "stateMutability": "view",
      "type": "function"
    },
    {
      "inputs": [
        {
          "internalType": "address",
          "name": "",
          "type": "address"
        },
        {
          "internalType": "uint256",
          "name": "",
          "type": "uint256"
        }
      ],
      "name": "id_player_entries",
      "outputs": [
        {
          "internalType": "uint256",
          "name": "prev",
          "type": "uint256"
        },
        {
          "internalType": "uint256",
          "name": "next",
          "type": "uint256"
        }
      ],
      "stateMutability": "view",
      "type": "function"
    },
    {
      "inputs": [
        {
          "internalType": "address",
          "name": "",
          "type": "address"
        }
      ],
      "name": "known_player",
      "outputs": [
        {
          "internalType": "bool",
          "name": "",
          "type": "bool"
        }
      ],
      "stateMutability": "view",
      "type": "function"
    },
    {
      "inputs": [],
      "name": "link_fee",
      "outputs": [
        {
          "internalType": "uint256",
          "name": "",
          "type": "uint256"
        }
      ],
      "stateMutability": "view",
      "type": "function"
    },
    {
      "inputs": [],
      "name": "max_players",
      "outputs": [
        {
          "internalType": "uint256",
          "name": "",
          "type": "uint256"
        }
      ],
      "stateMutability": "view",
      "type": "function"
    },
    {
      "inputs": [
        {
          "internalType": "address",
          "name": "",
          "type": "address"
        }
      ],
      "name": "num_entries",
      "outputs": [
        {
          "internalType": "uint256",
          "name": "",
          "type": "uint256"
        }
      ],
      "stateMutability": "view",
      "type": "function"
    },
    {
      "inputs": [
        {
          "internalType": "address",
          "name": "from",
          "type": "address"
        },
        {
          "internalType": "uint256",
          "name": "amount",
          "type": "uint256"
        },
        {
          "internalType": "bytes",
          "name": "data",
          "type": "bytes"
        }
      ],
      "name": "onTokenTransfer",
      "outputs": [
        {
          "internalType": "bool",
          "name": "success",
          "type": "bool"
        }
      ],
      "stateMutability": "nonpayable",
      "type": "function"
    },
    {
      "inputs": [],
      "name": "payout",
      "outputs": [
        {
          "internalType": "uint256",
          "name": "",
          "type": "uint256"
        }
      ],
      "stateMutability": "view",
      "type": "function"
    },
    {
      "inputs": [],
      "name": "queue_size",
      "outputs": [
        {
          "internalType": "uint256",
          "name": "",
          "type": "uint256"
        }
      ],
      "stateMutability": "view",
      "type": "function"
    },
    {
      "inputs": [
        {
          "internalType": "bytes32",
          "name": "requestId",
          "type": "bytes32"
        },
        {
          "internalType": "uint256",
          "name": "randomness",
          "type": "uint256"
        }
      ],
      "name": "rawFulfillRandomness",
      "outputs": [],
      "stateMutability": "nonpayable",
      "type": "function"
    },
    {
      "inputs": [
        {
          "internalType": "uint256",
          "name": "number",
          "type": "uint256"
        }
      ],
      "name": "removeEntries",
      "outputs": [
        {
          "internalType": "uint256",
          "name": "",
          "type": "uint256"
        }
      ],
      "stateMutability": "nonpayable",
      "type": "function"
    },
    {
      "inputs": [
        {
          "internalType": "uint256",
          "name": "link_amount",
          "type": "uint256"
        },
        {
          "internalType": "uint256",
          "name": "eth_amount",
          "type": "uint256"
        }
      ],
      "name": "removeLinkEth",
      "outputs": [
        {
          "internalType": "uint256",
          "name": "",
          "type": "uint256"
        },
        {
          "internalType": "uint256",
          "name": "",
          "type": "uint256"
        }
      ],
      "stateMutability": "nonpayable",
      "type": "function"
    },
    {
      "inputs": [],
      "name": "stake",
      "outputs": [
        {
          "internalType": "uint256",
          "name": "",
          "type": "uint256"
        }
      ],
      "stateMutability": "view",
      "type": "function"
    },
    {
      "inputs": [
        {
          "internalType": "address",
          "name": "",
          "type": "address"
        }
      ],
      "name": "staked_eth",
      "outputs": [
        {
          "internalType": "uint256",
          "name": "",
          "type": "uint256"
        }
      ],
      "stateMutability": "view",
      "type": "function"
    },
    {
      "inputs": [
        {
          "internalType": "address",
          "name": "",
          "type": "address"
        }
      ],
      "name": "staked_link",
      "outputs": [
        {
          "internalType": "uint256",
          "name": "",
          "type": "uint256"
        }
      ],
      "stateMutability": "view",
      "type": "function"
    },
    {
      "inputs": [],
      "name": "tail",
      "outputs": [
        {
          "internalType": "uint256",
          "name": "",
          "type": "uint256"
        }
      ],
      "stateMutability": "view",
      "type": "function"
    }
  ],
  "bytecode": "0x60c0604052655af3107a40006004556000600e557fffffffffffffffffffffffffffffffffffffffffffffffffffffffffffffffff600f557f6e75b569a01ef56d18cab6a8e71e6600d6ce853834d4a5748b720d06f878b3a460001b6010553480156200006b57600080fd5b50604051620032ca380380620032ca833981810160405281019062000091919062000467565b738c7382f9d8f56b33781fe506e897a4f1e2d1725573326c977e6efc84e512bb9c30f76e30c160ed06fb8173ffffffffffffffffffffffffffffffffffffffff1660a08173ffffffffffffffffffffffffffffffffffffffff1660601b815250508073ffffffffffffffffffffffffffffffffffffffff1660808173ffffffffffffffffffffffffffffffffffffffff1660601b8152505050506000821162000171576040517f08c379a00000000000000000000000000000000000000000000000000000000081526004016200016890620005aa565b60405180910390fd5b60008111620001b7576040517f08c379a0000000000000000000000000000000000000000000000000000000008152600401620001ae9062000566565b60405180910390fd5b6000600182620001c8919062000672565b600454620001d79190620006b7565b146200021a576040517f08c379a0000000000000000000000000000000000000000000000000000000008152600401620002119062000588565b60405180910390fd5b60006001826200022b919062000672565b6001546200023a9190620006b7565b146200027d576040517f08c379a0000000000000000000000000000000000000000000000000000000008152600401620002749062000544565b60405180910390fd5b816001819055508060028190555060016002546200029c919062000672565b600454620002ab91906200063a565b6003819055506001600254620002c2919062000672565b600154620002d191906200063a565b600154620002e09190620005dd565b6005819055506040518060600160405280600e548152602001600f548152602001600073ffffffffffffffffffffffffffffffffffffffff1681525060096000600e548152602001908152602001600020600082015181600001556020820151816001015560408201518160020160006101000a81548173ffffffffffffffffffffffffffffffffffffffff021916908373ffffffffffffffffffffffffffffffffffffffff1602179055509050506040518060600160405280600e548152602001600f548152602001600073ffffffffffffffffffffffffffffffffffffffff1681525060096000600f548152602001908152602001600020600082015181600001556020820151816001015560408201518160020160006101000a81548173ffffffffffffffffffffffffffffffffffffffff021916908373ffffffffffffffffffffffffffffffffffffffff1602179055509050506000600a819055506000600b81905550505062000831565b600081519050620004618162000817565b92915050565b600080604083850312156200047b57600080fd5b60006200048b8582860162000450565b92505060206200049e8582860162000450565b9150509250929050565b6000620004b7601f83620005cc565b9150620004c4826200074d565b602082019050919050565b6000620004de601d83620005cc565b9150620004eb8262000776565b602082019050919050565b600062000505602283620005cc565b915062000512826200079f565b604082019050919050565b60006200052c601783620005cc565b91506200053982620007ee565b602082019050919050565b600060208201905081810360008301526200055f81620004a8565b9050919050565b600060208201905081810360008301526200058181620004cf565b9050919050565b60006020820190508181036000830152620005a381620004f6565b9050919050565b60006020820190508181036000830152620005c5816200051d565b9050919050565b600082825260208201905092915050565b6000620005ea82620006ad565b9150620005f783620006ad565b9250827fffffffffffffffffffffffffffffffffffffffffffffffffffffffffffffffff038211156200062f576200062e620006ef565b5b828201905092915050565b60006200064782620006ad565b91506200065483620006ad565b9250826200066757620006666200071e565b5b828204905092915050565b60006200067f82620006ad565b91506200068c83620006ad565b925082821015620006a257620006a1620006ef565b5b828203905092915050565b6000819050919050565b6000620006c482620006ad565b9150620006d183620006ad565b925082620006e457620006e36200071e565b5b828206905092915050565b7f4e487b7100000000000000000000000000000000000000000000000000000000600052601160045260246000fd5b7f4e487b7100000000000000000000000000000000000000000000000000000000600052601260045260246000fd5b7f5374616b652073686f756c642062652064697669646564206576656e6c792e00600082015250565b7f4d617820706c6179657273206d757374206265206e6f6e2d7a65726f2e000000600082015250565b7f4c494e4b206665652073686f756c642062652064697669646564206576656e6c60008201527f792e000000000000000000000000000000000000000000000000000000000000602082015250565b7f5374616b65206d757374206265206e6f6e2d7a65726f2e000000000000000000600082015250565b6200082281620006ad565b81146200082e57600080fd5b50565b60805160601c60a05160601c612a516200087960003960008181610be40152611942015260008181610aca01528181610eb5015281816113b001526119060152612a516000f3fe60806040526004361061011f5760003560e01c80634d5acb7d116100a05780639abcc16c116100645780639abcc16c146103e4578063a4c0ed3614610421578063b3b0ae7a1461045e578063c72301d81461049b578063e5af7181146104d85761011f565b80634d5acb7d146102fc578063520989441461033a57806363bd1d4a146103655780638f7dcfa31461039057806394985ddd146103bb5761011f565b80633a4b66f1116100e75780633a4b66f1146102345780633c7dbf901461025f5780633d4b94391461029c578063439370b1146102c757806349e65d32146102d15761011f565b806303e9972f1461012457806313d8c84014610161578063187526d41461018c57806320b74d2c146101ca57806334056eae146101f5575b600080fd5b34801561013057600080fd5b5061014b60048036038101906101469190611ec0565b610503565b60405161015891906122ed565b60405180910390f35b34801561016d57600080fd5b50610176610523565b6040516101839190612476565b60405180910390f35b34801561019857600080fd5b506101b360048036038101906101ae9190611ee9565b610529565b6040516101c1929190612491565b60405180910390f35b3480156101d657600080fd5b506101df61055a565b6040516101ec9190612476565b60405180910390f35b34801561020157600080fd5b5061021c60048036038101906102179190611ff6565b610560565b60405161022b939291906124ba565b60405180910390f35b34801561024057600080fd5b506102496105aa565b6040516102569190612476565b60405180910390f35b34801561026b57600080fd5b5061028660048036038101906102819190611ec0565b6105b0565b6040516102939190612476565b60405180910390f35b3480156102a857600080fd5b506102b16105c8565b6040516102be9190612476565b60405180910390f35b6102cf6105ce565b005b3480156102dd57600080fd5b506102e661062f565b6040516102f39190612476565b60405180910390f35b34801561030857600080fd5b50610323600480360381019061031e9190612048565b610635565b604051610331929190612491565b60405180910390f35b34801561034657600080fd5b5061034f610bd0565b60405161035c9190612476565b60405180910390f35b34801561037157600080fd5b5061037a610bd6565b6040516103879190612476565b60405180910390f35b34801561039c57600080fd5b506103a5610bdc565b6040516103b29190612476565b60405180910390f35b3480156103c757600080fd5b506103e260048036038101906103dd9190611fba565b610be2565b005b3480156103f057600080fd5b5061040b60048036038101906104069190611ff6565b610c7e565b6040516104189190612476565b60405180910390f35b34801561042d57600080fd5b5061044860048036038101906104439190611f25565b610eb1565b60405161045591906122ed565b60405180910390f35b34801561046a57600080fd5b5061048560048036038101906104809190611ec0565b610fac565b6040516104929190612476565b60405180910390f35b3480156104a757600080fd5b506104c260048036038101906104bd9190611ec0565b610fc4565b6040516104cf9190612476565b60405180910390f35b3480156104e457600080fd5b506104ed610fdc565b6040516104fa9190612476565b60405180910390f35b60066020528060005260406000206000915054906101000a900460ff1681565b600f5481565b600c602052816000526040600020602052806000526040600020600091509150508060000154908060010154905082565b600b5481565b60096020528060005260406000206000915090508060000154908060010154908060020160009054906101000a900473ffffffffffffffffffffffffffffffffffffffff16905083565b60015481565b60076020528060005260406000206000915090505481565b600a5481565b34600760003373ffffffffffffffffffffffffffffffffffffffff1673ffffffffffffffffffffffffffffffffffffffff168152602001908152602001600020600082825461061d919061251e565b9250508190555061062d33610fe2565b565b60025481565b60008060008411806106475750600083115b610686576040517f08c379a000000000000000000000000000000000000000000000000000000000815260040161067d906123d6565b60405180910390fd5b83600860003373ffffffffffffffffffffffffffffffffffffffff1673ffffffffffffffffffffffffffffffffffffffff168152602001908152602001600020541015610708576040517f08c379a00000000000000000000000000000000000000000000000000000000081526004016106ff90612376565b60405180910390fd5b82600760003373ffffffffffffffffffffffffffffffffffffffff1673ffffffffffffffffffffffffffffffffffffffff16815260200190815260200160002054101561078a576040517f08c379a000000000000000000000000000000000000000000000000000000000815260040161078190612456565b60405180910390fd5b600060035485600860003373ffffffffffffffffffffffffffffffffffffffff1673ffffffffffffffffffffffffffffffffffffffff168152602001908152602001600020546107da91906125ff565b6107e49190612574565b9050600060015485600760003373ffffffffffffffffffffffffffffffffffffffff1673ffffffffffffffffffffffffffffffffffffffff1681526020019081526020016000205461083691906125ff565b6108409190612574565b9050600061084e8383611100565b9050600081600d60003373ffffffffffffffffffffffffffffffffffffffff1673ffffffffffffffffffffffffffffffffffffffff1681526020019081526020016000205461089d91906125ff565b9050600081146108b2576108b081610c7e565b505b600084600d60003373ffffffffffffffffffffffffffffffffffffffff1673ffffffffffffffffffffffffffffffffffffffff1681526020019081526020016000205411156109635784600d60003373ffffffffffffffffffffffffffffffffffffffff1673ffffffffffffffffffffffffffffffffffffffff1681526020019081526020016000205461094691906125ff565b60035461095391906125a5565b8961095e91906125ff565b610965565b885b9050600084600d60003373ffffffffffffffffffffffffffffffffffffffff1673ffffffffffffffffffffffffffffffffffffffff168152602001908152602001600020541115610a185784600d60003373ffffffffffffffffffffffffffffffffffffffff1673ffffffffffffffffffffffffffffffffffffffff168152602001908152602001600020546109fb91906125ff565b600154610a0891906125a5565b89610a1391906125ff565b610a1a565b885b905081600860003373ffffffffffffffffffffffffffffffffffffffff1673ffffffffffffffffffffffffffffffffffffffff1681526020019081526020016000206000828254610a6b91906125ff565b9250508190555080600760003373ffffffffffffffffffffffffffffffffffffffff1673ffffffffffffffffffffffffffffffffffffffff1681526020019081526020016000206000828254610ac191906125ff565b925050819055507f000000000000000000000000000000000000000000000000000000000000000073ffffffffffffffffffffffffffffffffffffffff1663a9059cbb33846040518363ffffffff1660e01b8152600401610b23929190612286565b602060405180830381600087803b158015610b3d57600080fd5b505af1158015610b51573d6000803e3d6000fd5b505050506040513d601f19601f82011682018060405250810190610b759190611f91565b503373ffffffffffffffffffffffffffffffffffffffff166108fc829081150290604051600060405180830381858888f19350505050158015610bbc573d6000803e3d6000fd5b508181975097505050505050509250929050565b60045481565b60055481565b600e5481565b7f000000000000000000000000000000000000000000000000000000000000000073ffffffffffffffffffffffffffffffffffffffff163373ffffffffffffffffffffffffffffffffffffffff1614610c70576040517f08c379a0000000000000000000000000000000000000000000000000000000008152600401610c6790612416565b60405180910390fd5b610c7a828261111a565b5050565b6000808211610cc2576040517f08c379a0000000000000000000000000000000000000000000000000000000008152600401610cb9906123f6565b60405180910390fd5b600d60003373ffffffffffffffffffffffffffffffffffffffff1673ffffffffffffffffffffffffffffffffffffffff16815260200190815260200160002054821115610d44576040517f08c379a0000000000000000000000000000000000000000000000000000000008152600401610d3b90612396565b60405180910390fd5b600080600c60003373ffffffffffffffffffffffffffffffffffffffff1673ffffffffffffffffffffffffffffffffffffffff1681526020019081526020016000206000600f5481526020019081526020016000206000015490505b600e548114158015610db157508382105b8015610dbe5750600b5481115b15610e3857610dcd33826111c5565b8180610dd8906126e2565b925050600c60003373ffffffffffffffffffffffffffffffffffffffff1673ffffffffffffffffffffffffffffffffffffffff1681526020019081526020016000206000600f548152602001908152602001600020600001549050610da0565b81600a6000828254610e4a91906125ff565b9250508190555081600d60003373ffffffffffffffffffffffffffffffffffffffff1673ffffffffffffffffffffffffffffffffffffffff1681526020019081526020016000206000828254610ea091906125ff565b925050819055508192505050919050565b60007f000000000000000000000000000000000000000000000000000000000000000073ffffffffffffffffffffffffffffffffffffffff163373ffffffffffffffffffffffffffffffffffffffff1614610f41576040517f08c379a0000000000000000000000000000000000000000000000000000000008152600401610f3890612436565b60405180910390fd5b83600860008773ffffffffffffffffffffffffffffffffffffffff1673ffffffffffffffffffffffffffffffffffffffff1681526020019081526020016000206000828254610f90919061251e565b92505081905550610fa085610fe2565b60019050949350505050565b60086020528060005260406000206000915090505481565b600d6020528060005260406000206000915090505481565b60035481565b6000610fed8261127e565b9050600254600a54101561106557600061101682600a5460025461101191906125ff565b611100565b905060025481600a54611029919061251e565b1415611063578060096000600f54815260200190815260200160002060000154611053919061251e565b600b819055506110616113a9565b505b505b60005b8181101561108c57611079836114ab565b8080611084906126e2565b915050611068565b5080600a600082825461109f919061251e565b9250508190555080600d60008473ffffffffffffffffffffffffffffffffffffffff1673ffffffffffffffffffffffffffffffffffffffff16815260200190815260200160002060008282546110f5919061251e565b925050819055505050565b6000818311156111105781611112565b825b905092915050565b60006002548261112a919061273f565b90505b600254600a54106111c05760005b8181101561115e5761114b6115c4565b8080611156906126e2565b91505061113b565b50611167611616565b506000600182611177919061251e565b90505b60025481101561119f5761118c6115c4565b8080611197906126e2565b91505061117a565b50600254600a60008282546111b491906125ff565b9250508190555061112d565b505050565b6000600960008381526020019081526020016000209050806001015460096000836000015481526020019081526020016000206001018190555080600001546009600083600101548152602001908152602001600020600001819055506009600083815260200190815260200160002060008082016000905560018201600090556002820160006101000a81549073ffffffffffffffffffffffffffffffffffffffff021916905550506112798383611786565b505050565b600080600d60008473ffffffffffffffffffffffffffffffffffffffff1673ffffffffffffffffffffffffffffffffffffffff1681526020019081526020016000205490506000600154826112d391906125a5565b600760008673ffffffffffffffffffffffffffffffffffffffff1673ffffffffffffffffffffffffffffffffffffffff1681526020019081526020016000205461131d91906125ff565b905060006003548361132f91906125a5565b600860008773ffffffffffffffffffffffffffffffffffffffff1673ffffffffffffffffffffffffffffffffffffffff1681526020019081526020016000205461137991906125ff565b905061139f6001548361138c9190612574565b6003548361139a9190612574565b611100565b9350505050919050565b60006004547f000000000000000000000000000000000000000000000000000000000000000073ffffffffffffffffffffffffffffffffffffffff166370a08231306040518263ffffffff1660e01b8152600401611407919061226b565b60206040518083038186803b15801561141f57600080fd5b505afa158015611433573d6000803e3d6000fd5b505050506040513d601f19601f82011682018060405250810190611457919061201f565b1015611498576040517f08c379a000000000000000000000000000000000000000000000000000000000815260040161148f906123b6565b60405180910390fd5b6114a6601054600454611902565b905090565b600060096000600f54815260200190815260200160002060000154905060006001826114d7919061251e565b90506040518060600160405280838152602001600f5481526020018473ffffffffffffffffffffffffffffffffffffffff1681525060096000838152602001908152602001600020600082015181600001556020820151816001015560408201518160020160006101000a81548173ffffffffffffffffffffffffffffffffffffffff021916908373ffffffffffffffffffffffffffffffffffffffff1602179055509050508060096000848152602001908152602001600020600101819055508060096000600f548152602001908152602001600020600001819055506115bf8382611a61565b505050565b6115cc611616565b73ffffffffffffffffffffffffffffffffffffffff166108fc6005549081150290604051600060405180830381858888f19350505050158015611613573d6000803e3d6000fd5b50565b60008060096000600e54815260200190815260200160002060010154905060006009600083815260200190815260200160002060020160009054906101000a900473ffffffffffffffffffffffffffffffffffffffff16905061167981836111c5565b600d60008273ffffffffffffffffffffffffffffffffffffffff1673ffffffffffffffffffffffffffffffffffffffff16815260200190815260200160002060008154809291906116c9906126b8565b9190505550600154600760008373ffffffffffffffffffffffffffffffffffffffff1673ffffffffffffffffffffffffffffffffffffffff168152602001908152602001600020600082825461171f91906125ff565b92505081905550600354600860008373ffffffffffffffffffffffffffffffffffffffff1673ffffffffffffffffffffffffffffffffffffffff168152602001908152602001600020600082825461177791906125ff565b92505081905550809250505090565b6000600c60008473ffffffffffffffffffffffffffffffffffffffff1673ffffffffffffffffffffffffffffffffffffffff168152602001908152602001600020600083815260200190815260200160002090508060010154600c60008573ffffffffffffffffffffffffffffffffffffffff1673ffffffffffffffffffffffffffffffffffffffff168152602001908152602001600020600083600001548152602001908152602001600020600101819055508060000154600c60008573ffffffffffffffffffffffffffffffffffffffff1673ffffffffffffffffffffffffffffffffffffffff16815260200190815260200160002060008360010154815260200190815260200160002060000181905550600c60008473ffffffffffffffffffffffffffffffffffffffff1673ffffffffffffffffffffffffffffffffffffffff168152602001908152602001600020600083815260200190815260200160002060008082016000905560018201600090555050505050565b60007f000000000000000000000000000000000000000000000000000000000000000073ffffffffffffffffffffffffffffffffffffffff16634000aea07f000000000000000000000000000000000000000000000000000000000000000084866000604051602001611976929190612308565b6040516020818303038152906040526040518463ffffffff1660e01b81526004016119a3939291906122af565b602060405180830381600087803b1580156119bd57600080fd5b505af11580156119d1573d6000803e3d6000fd5b505050506040513d601f19601f820116820180604052508101906119f59190611f91565b506000611a178460003060008089815260200190815260200160002054611d9e565b9050600160008086815260200190815260200160002054611a38919061251e565b60008086815260200190815260200160002081905550611a588482611dda565b91505092915050565b600660008373ffffffffffffffffffffffffffffffffffffffff1673ffffffffffffffffffffffffffffffffffffffff16815260200190815260200160002060009054906101000a900460ff16611c0f576040518060400160405280600e548152602001600f54815250600c60008473ffffffffffffffffffffffffffffffffffffffff1673ffffffffffffffffffffffffffffffffffffffff1681526020019081526020016000206000600e54815260200190815260200160002060008201518160000155602082015181600101559050506040518060400160405280600e548152602001600f54815250600c60008473ffffffffffffffffffffffffffffffffffffffff1673ffffffffffffffffffffffffffffffffffffffff1681526020019081526020016000206000600f54815260200190815260200160002060008201518160000155602082015181600101559050506001600660008473ffffffffffffffffffffffffffffffffffffffff1673ffffffffffffffffffffffffffffffffffffffff16815260200190815260200160002060006101000a81548160ff0219169083151502179055505b6000600c60008473ffffffffffffffffffffffffffffffffffffffff1673ffffffffffffffffffffffffffffffffffffffff1681526020019081526020016000206000600f5481526020019081526020016000206000015490506040518060400160405280828152602001600f54815250600c60008573ffffffffffffffffffffffffffffffffffffffff1673ffffffffffffffffffffffffffffffffffffffff1681526020019081526020016000206000848152602001908152602001600020600082015181600001556020820151816001015590505081600c60008573ffffffffffffffffffffffffffffffffffffffff1673ffffffffffffffffffffffffffffffffffffffff16815260200190815260200160002060008381526020019081526020016000206001018190555081600c60008573ffffffffffffffffffffffffffffffffffffffff1673ffffffffffffffffffffffffffffffffffffffff1681526020019081526020016000206000600f54815260200190815260200160002060000181905550505050565b600084848484604051602001611db79493929190612331565b6040516020818303038152906040528051906020012060001c9050949350505050565b60008282604051602001611def92919061223f565b60405160208183030381529060405280519060200120905092915050565b600081359050611e1c816129bf565b92915050565b600081519050611e31816129d6565b92915050565b600081359050611e46816129ed565b92915050565b60008083601f840112611e5e57600080fd5b8235905067ffffffffffffffff811115611e7757600080fd5b602083019150836001820283011115611e8f57600080fd5b9250929050565b600081359050611ea581612a04565b92915050565b600081519050611eba81612a04565b92915050565b600060208284031215611ed257600080fd5b6000611ee084828501611e0d565b91505092915050565b60008060408385031215611efc57600080fd5b6000611f0a85828601611e0d565b9250506020611f1b85828601611e96565b9150509250929050565b60008060008060608587031215611f3b57600080fd5b6000611f4987828801611e0d565b9450506020611f5a87828801611e96565b935050604085013567ffffffffffffffff811115611f7757600080fd5b611f8387828801611e4c565b925092505092959194509250565b600060208284031215611fa357600080fd5b6000611fb184828501611e22565b91505092915050565b60008060408385031215611fcd57600080fd5b6000611fdb85828601611e37565b9250506020611fec85828601611e96565b9150509250929050565b60006020828403121561200857600080fd5b600061201684828501611e96565b91505092915050565b60006020828403121561203157600080fd5b600061203f84828501611eab565b91505092915050565b6000806040838503121561205b57600080fd5b600061206985828601611e96565b925050602061207a85828601611e96565b9150509250929050565b61208d81612633565b82525050565b61209c81612645565b82525050565b6120ab81612651565b82525050565b6120c26120bd82612651565b61272b565b82525050565b60006120d3826124f1565b6120dd81856124fc565b93506120ed818560208601612685565b6120f6816127ce565b840191505092915050565b600061210e600e8361250d565b9150612119826127df565b602082019050919050565b600061213160268361250d565b915061213c82612808565b604082019050919050565b6000612154602f8361250d565b915061215f82612857565b604082019050919050565b6000612177601e8361250d565b9150612182826128a6565b602082019050919050565b600061219a60298361250d565b91506121a5826128cf565b604082019050919050565b60006121bd601f8361250d565b91506121c88261291e565b602082019050919050565b60006121e060268361250d565b91506121eb82612947565b604082019050919050565b6000612203600d8361250d565b915061220e82612996565b602082019050919050565b6122228161267b565b82525050565b6122396122348261267b565b612735565b82525050565b600061224b82856120b1565b60208201915061225b8284612228565b6020820191508190509392505050565b60006020820190506122806000830184612084565b92915050565b600060408201905061229b6000830185612084565b6122a86020830184612219565b9392505050565b60006060820190506122c46000830186612084565b6122d16020830185612219565b81810360408301526122e381846120c8565b9050949350505050565b60006020820190506123026000830184612093565b92915050565b600060408201905061231d60008301856120a2565b61232a6020830184612219565b9392505050565b600060808201905061234660008301876120a2565b6123536020830186612219565b6123606040830185612084565b61236d6060830184612219565b95945050505050565b6000602082019050818103600083015261238f81612101565b9050919050565b600060208201905081810360008301526123af81612124565b9050919050565b600060208201905081810360008301526123cf81612147565b9050919050565b600060208201905081810360008301526123ef8161216a565b9050919050565b6000602082019050818103600083015261240f8161218d565b9050919050565b6000602082019050818103600083015261242f816121b0565b9050919050565b6000602082019050818103600083015261244f816121d3565b9050919050565b6000602082019050818103600083015261246f816121f6565b9050919050565b600060208201905061248b6000830184612219565b92915050565b60006040820190506124a66000830185612219565b6124b36020830184612219565b9392505050565b60006060820190506124cf6000830186612219565b6124dc6020830185612219565b6124e96040830184612084565b949350505050565b600081519050919050565b600082825260208201905092915050565b600082825260208201905092915050565b60006125298261267b565b91506125348361267b565b9250827fffffffffffffffffffffffffffffffffffffffffffffffffffffffffffffffff0382111561256957612568612770565b5b828201905092915050565b600061257f8261267b565b915061258a8361267b565b92508261259a5761259961279f565b5b828204905092915050565b60006125b08261267b565b91506125bb8361267b565b9250817fffffffffffffffffffffffffffffffffffffffffffffffffffffffffffffffff04831182151516156125f4576125f3612770565b5b828202905092915050565b600061260a8261267b565b91506126158361267b565b92508282101561262857612627612770565b5b828203905092915050565b600061263e8261265b565b9050919050565b60008115159050919050565b6000819050919050565b600073ffffffffffffffffffffffffffffffffffffffff82169050919050565b6000819050919050565b60005b838110156126a3578082015181840152602081019050612688565b838111156126b2576000848401525b50505050565b60006126c38261267b565b915060008214156126d7576126d6612770565b5b600182039050919050565b60006126ed8261267b565b91507fffffffffffffffffffffffffffffffffffffffffffffffffffffffffffffffff8214156127205761271f612770565b5b600182019050919050565b6000819050919050565b6000819050919050565b600061274a8261267b565b91506127558361267b565b9250826127655761276461279f565b5b828206905092915050565b7f4e487b7100000000000000000000000000000000000000000000000000000000600052601160045260246000fd5b7f4e487b7100000000000000000000000000000000000000000000000000000000600052601260045260246000fd5b6000601f19601f8301169050919050565b7f546f6f206d756368204c494e4b2e000000000000000000000000000000000000600082015250565b7f43616e6e6f742072656d6f7665206d6f726520656e7472696573207468616e2060008201527f65786973742e0000000000000000000000000000000000000000000000000000602082015250565b7f4e6f7420656e6f756768204c494e4b20746f206d616b6520726571756573742060008201527f666f722072616e646f6d6e6573732e0000000000000000000000000000000000602082015250565b7f53686f756c642072656d6f7665206e6f6e2d7a65726f20616d6f756e742e0000600082015250565b7f53686f756c642072656d6f7665206e6f6e2d7a65726f20616d6f756e74206f6660008201527f20656e74726965732e0000000000000000000000000000000000000000000000602082015250565b7f4f6e6c7920565246436f6f7264696e61746f722063616e2066756c66696c6c00600082015250565b7f46756e6374696f6e2063616c6c6564206f757473696465204c494e4b20636f6e60008201527f74726163742e0000000000000000000000000000000000000000000000000000602082015250565b7f546f6f206d756368204554482e00000000000000000000000000000000000000600082015250565b6129c881612633565b81146129d357600080fd5b50565b6129df81612645565b81146129ea57600080fd5b50565b6129f681612651565b8114612a0157600080fd5b50565b612a0d8161267b565b8114612a1857600080fd5b5056fea2646970667358221220753b43af240f2ac616fabf4a033e2516c596320f715c4fa3341ec030256304cc64736f6c63430008040033",
  "linkReferences": {},
  "deployedLinkReferences": {}
}