{
  "_format": "hh-sol-artifact-1",
  "contractName": "GroatGame",
  "sourceName": "contracts/GroatGame.sol",
  "abi": [
    {
      "inputs": [
        {
          "internalType": "uint256",
          "name": "_stake",
          "type": "uint256"
        },
        {
          "internalType": "uint256",
          "name": "_max_players",
          "type": "uint256"
        }
      ],
      "stateMutability": "nonpayable",
      "type": "constructor"
    },
    {
      "inputs": [],
      "name": "depositEth",
      "outputs": [],
      "stateMutability": "payable",
      "type": "function"
    },
    {
      "inputs": [],
      "name": "entrance_fee",
      "outputs": [
        {
          "internalType": "uint256",
          "name": "",
          "type": "uint256"
        }
      ],
      "stateMutability": "view",
      "type": "function"
    },
    {
      "inputs": [],
      "name": "link_fee",
      "outputs": [
        {
          "internalType": "uint256",
          "name": "",
          "type": "uint256"
        }
      ],
      "stateMutability": "view",
      "type": "function"
    },
    {
      "inputs": [],
      "name": "max_players",
      "outputs": [
        {
          "internalType": "uint256",
          "name": "",
          "type": "uint256"
        }
      ],
      "stateMutability": "view",
      "type": "function"
    },
    {
      "inputs": [
        {
          "internalType": "address",
          "name": "from",
          "type": "address"
        },
        {
          "internalType": "uint256",
          "name": "amount",
          "type": "uint256"
        },
        {
          "internalType": "bytes",
          "name": "data",
          "type": "bytes"
        }
      ],
      "name": "onTokenTransfer",
      "outputs": [
        {
          "internalType": "bool",
          "name": "success",
          "type": "bool"
        }
      ],
      "stateMutability": "nonpayable",
      "type": "function"
    },
    {
      "inputs": [],
      "name": "payout",
      "outputs": [
        {
          "internalType": "uint256",
          "name": "",
          "type": "uint256"
        }
      ],
      "stateMutability": "view",
      "type": "function"
    },
    {
      "inputs": [
        {
          "internalType": "bytes32",
          "name": "requestId",
          "type": "bytes32"
        },
        {
          "internalType": "uint256",
          "name": "randomness",
          "type": "uint256"
        }
      ],
      "name": "rawFulfillRandomness",
      "outputs": [],
      "stateMutability": "nonpayable",
      "type": "function"
    },
    {
      "inputs": [
        {
          "internalType": "uint256",
          "name": "number",
          "type": "uint256"
        }
      ],
      "name": "removeEntries",
      "outputs": [
        {
          "internalType": "uint256",
          "name": "",
          "type": "uint256"
        }
      ],
      "stateMutability": "nonpayable",
      "type": "function"
    },
    {
      "inputs": [
        {
          "internalType": "uint256",
          "name": "link_amount",
          "type": "uint256"
        },
        {
          "internalType": "uint256",
          "name": "eth_amount",
          "type": "uint256"
        }
      ],
      "name": "removeLinkEth",
      "outputs": [
        {
          "internalType": "uint256",
          "name": "",
          "type": "uint256"
        },
        {
          "internalType": "uint256",
          "name": "",
          "type": "uint256"
        }
      ],
      "stateMutability": "nonpayable",
      "type": "function"
    },
    {
      "inputs": [],
      "name": "stake",
      "outputs": [
        {
          "internalType": "uint256",
          "name": "",
          "type": "uint256"
        }
      ],
      "stateMutability": "view",
      "type": "function"
    }
  ],
  "bytecode": "0x60c06040526703782dace9d900006004556000600d557fffffffffffffffffffffffffffffffffffffffffffffffffffffffffffffffff600e557f6e75b569a01ef56d18cab6a8e71e6600d6ce853834d4a5748b720d06f878b3a460001b600f553480156200006d57600080fd5b506040516200257f3803806200257f83398181016040528101906200009391906200044d565b738c7382f9d8f56b33781fe506e897a4f1e2d1725573326c977e6efc84e512bb9c30f76e30c160ed06fb8173ffffffffffffffffffffffffffffffffffffffff1660a08173ffffffffffffffffffffffffffffffffffffffff1660601b815250508073ffffffffffffffffffffffffffffffffffffffff1660808173ffffffffffffffffffffffffffffffffffffffff1660601b8152505050506000821162000173576040517f08c379a00000000000000000000000000000000000000000000000000000000081526004016200016a9062000590565b60405180910390fd5b60008111620001b9576040517f08c379a0000000000000000000000000000000000000000000000000000000008152600401620001b0906200054c565b60405180910390fd5b6000600182620001ca919062000658565b600454620001d991906200069d565b146200021c576040517f08c379a000000000000000000000000000000000000000000000000000000000815260040162000213906200056e565b60405180910390fd5b60006001826200022d919062000658565b6001546200023c91906200069d565b146200027f576040517f08c379a000000000000000000000000000000000000000000000000000000000815260040162000276906200052a565b60405180910390fd5b81600181905550806002819055506002546004546200029f919062000620565b600381905550600254600154620002b7919062000620565b600154620002c69190620005c3565b6005819055506040518060600160405280600d548152602001600e548152602001600073ffffffffffffffffffffffffffffffffffffffff1681525060086000600d548152602001908152602001600020600082015181600001556020820151816001015560408201518160020160006101000a81548173ffffffffffffffffffffffffffffffffffffffff021916908373ffffffffffffffffffffffffffffffffffffffff1602179055509050506040518060600160405280600d548152602001600e548152602001600073ffffffffffffffffffffffffffffffffffffffff1681525060086000600e548152602001908152602001600020600082015181600001556020820151816001015560408201518160020160006101000a81548173ffffffffffffffffffffffffffffffffffffffff021916908373ffffffffffffffffffffffffffffffffffffffff16021790555090505060006009819055506000600a81905550505062000817565b6000815190506200044781620007fd565b92915050565b600080604083850312156200046157600080fd5b6000620004718582860162000436565b9250506020620004848582860162000436565b9150509250929050565b60006200049d601f83620005b2565b9150620004aa8262000733565b602082019050919050565b6000620004c4601d83620005b2565b9150620004d1826200075c565b602082019050919050565b6000620004eb602283620005b2565b9150620004f88262000785565b604082019050919050565b600062000512601783620005b2565b91506200051f82620007d4565b602082019050919050565b6000602082019050818103600083015262000545816200048e565b9050919050565b600060208201905081810360008301526200056781620004b5565b9050919050565b600060208201905081810360008301526200058981620004dc565b9050919050565b60006020820190508181036000830152620005ab8162000503565b9050919050565b600082825260208201905092915050565b6000620005d08262000693565b9150620005dd8362000693565b9250827fffffffffffffffffffffffffffffffffffffffffffffffffffffffffffffffff03821115620006155762000614620006d5565b5b828201905092915050565b60006200062d8262000693565b91506200063a8362000693565b9250826200064d576200064c62000704565b5b828204905092915050565b6000620006658262000693565b9150620006728362000693565b925082821015620006885762000687620006d5565b5b828203905092915050565b6000819050919050565b6000620006aa8262000693565b9150620006b78362000693565b925082620006ca57620006c962000704565b5b828206905092915050565b7f4e487b7100000000000000000000000000000000000000000000000000000000600052601160045260246000fd5b7f4e487b7100000000000000000000000000000000000000000000000000000000600052601260045260246000fd5b7f5374616b652073686f756c642062652064697669646564206576656e6c792e00600082015250565b7f4d617820706c6179657273206d757374206265206e6f6e2d7a65726f2e000000600082015250565b7f4c494e4b206665652073686f756c642062652064697669646564206576656e6c60008201527f792e000000000000000000000000000000000000000000000000000000000000602082015250565b7f5374616b65206d757374206265206e6f6e2d7a65726f2e000000000000000000600082015250565b620008088162000693565b81146200081457600080fd5b50565b60805160601c60a05160601c611d3c6200084360003960006105f5015260006108c60152611d3c6000f3fe6080604052600436106100915760003560e01c806363bd1d4a1161005957806363bd1d4a1461015f57806394985ddd1461018a5780639abcc16c146101b3578063a4c0ed36146101f0578063e5af71811461022d57610091565b80633a4b66f114610096578063439370b1146100c157806349e65d32146100cb5780634d5acb7d146100f65780635209894414610134575b600080fd5b3480156100a257600080fd5b506100ab610258565b6040516100b89190611872565b60405180910390f35b6100c961025e565b005b3480156100d757600080fd5b506100e06102bf565b6040516100ed9190611872565b60405180910390f35b34801561010257600080fd5b5061011d60048036038101906101189190611628565b6102c5565b60405161012b92919061188d565b60405180910390f35b34801561014057600080fd5b506101496105e7565b6040516101569190611872565b60405180910390f35b34801561016b57600080fd5b506101746105ed565b6040516101819190611872565b60405180910390f35b34801561019657600080fd5b506101b160048036038101906101ac91906115c3565b6105f3565b005b3480156101bf57600080fd5b506101da60048036038101906101d591906115ff565b61068f565b6040516101e79190611872565b60405180910390f35b3480156101fc57600080fd5b5061021760048036038101906102129190611557565b6108c2565b6040516102249190611777565b60405180910390f35b34801561023957600080fd5b506102426109bd565b60405161024f9190611872565b60405180910390f35b60015481565b34600660003373ffffffffffffffffffffffffffffffffffffffff1673ffffffffffffffffffffffffffffffffffffffff16815260200190815260200160002060008282546102ad91906118c7565b925050819055506102bd336109c3565b565b60025481565b60008083600760003373ffffffffffffffffffffffffffffffffffffffff1673ffffffffffffffffffffffffffffffffffffffff16815260200190815260200160002054101561034a576040517f08c379a000000000000000000000000000000000000000000000000000000000815260040161034190611792565b60405180910390fd5b82600660003373ffffffffffffffffffffffffffffffffffffffff1673ffffffffffffffffffffffffffffffffffffffff1681526020019081526020016000205410156103cc576040517f08c379a00000000000000000000000000000000000000000000000000000000081526004016103c390611852565b60405180910390fd5b60008411806103db5750600083115b61041a576040517f08c379a0000000000000000000000000000000000000000000000000000000008152600401610411906117d2565b60405180910390fd5b6000806003548661042b9190611aa1565b1461044f57600160035486610440919061191d565b61044a91906118c7565b61045e565b6003548561045d919061191d565b5b9050600080600154866104719190611aa1565b14610494576001805486610485919061191d565b61048f91906118c7565b6104a3565b600154856104a2919061191d565b5b905060006104b96104b48484610ad8565b61068f565b90506000818411156104ee5781846104d191906119a8565b6003546104de919061194e565b886104e991906119a8565b6104f0565b875b905060008284111561052557828461050891906119a8565b600154610515919061194e565b8861052091906119a8565b610527565b875b905081600760003373ffffffffffffffffffffffffffffffffffffffff1673ffffffffffffffffffffffffffffffffffffffff168152602001908152602001600020600082825461057891906119a8565b9250508190555080600660003373ffffffffffffffffffffffffffffffffffffffff1673ffffffffffffffffffffffffffffffffffffffff16815260200190815260200160002060008282546105ce91906119a8565b9250508190555081819650965050505050509250929050565b60045481565b60055481565b7f000000000000000000000000000000000000000000000000000000000000000073ffffffffffffffffffffffffffffffffffffffff163373ffffffffffffffffffffffffffffffffffffffff1614610681576040517f08c379a000000000000000000000000000000000000000000000000000000000815260040161067890611812565b60405180910390fd5b61068b8282610af2565b5050565b60008082116106d3576040517f08c379a00000000000000000000000000000000000000000000000000000000081526004016106ca906117f2565b60405180910390fd5b600c60003373ffffffffffffffffffffffffffffffffffffffff1673ffffffffffffffffffffffffffffffffffffffff16815260200190815260200160002054821115610755576040517f08c379a000000000000000000000000000000000000000000000000000000000815260040161074c906117b2565b60405180910390fd5b600080600b60003373ffffffffffffffffffffffffffffffffffffffff1673ffffffffffffffffffffffffffffffffffffffff1681526020019081526020016000206000600e5481526020019081526020016000206000015490505b600d5481141580156107c257508382105b80156107cf5750600a5481115b15610849576107de3382610b9d565b81806107e990611a58565b925050600b60003373ffffffffffffffffffffffffffffffffffffffff1673ffffffffffffffffffffffffffffffffffffffff1681526020019081526020016000206000600e5481526020019081526020016000206000015490506107b1565b816009600082825461085b91906119a8565b9250508190555081600c60003373ffffffffffffffffffffffffffffffffffffffff1673ffffffffffffffffffffffffffffffffffffffff16815260200190815260200160002060008282546108b191906119a8565b925050819055508192505050919050565b60007f000000000000000000000000000000000000000000000000000000000000000073ffffffffffffffffffffffffffffffffffffffff163373ffffffffffffffffffffffffffffffffffffffff1614610952576040517f08c379a000000000000000000000000000000000000000000000000000000000815260040161094990611832565b60405180910390fd5b83600760008773ffffffffffffffffffffffffffffffffffffffff1673ffffffffffffffffffffffffffffffffffffffff16815260200190815260200160002060008282546109a191906118c7565b925050819055506109b1856109c3565b60019050949350505050565b60035481565b60006109ce82610c56565b90506002546009541015610a3d5760006109f7826009546002546109f291906119a8565b610d81565b905060025481600954610a0a91906118c7565b1415610a3b578060086000600e54815260200190815260200160002060000154610a3491906118c7565b600a819055505b505b60005b81811015610a6457610a5183610d9b565b8080610a5c90611a58565b915050610a40565b508060096000828254610a7791906118c7565b9250508190555080600c60008473ffffffffffffffffffffffffffffffffffffffff1673ffffffffffffffffffffffffffffffffffffffff1681526020019081526020016000206000828254610acd91906118c7565b925050819055505050565b600081831115610ae85782610aea565b815b905092915050565b600060025482610b029190611aa1565b90505b60025460095410610b985760005b81811015610b3657610b23610eb4565b8080610b2e90611a58565b915050610b13565b50610b3f610f06565b506000600182610b4f91906118c7565b90505b600254811015610b7757610b64610eb4565b8080610b6f90611a58565b915050610b52565b5060025460096000828254610b8c91906119a8565b92505081905550610b05565b505050565b6000600860008381526020019081526020016000209050806001015460086000836000015481526020019081526020016000206001018190555080600001546008600083600101548152602001908152602001600020600001819055506008600083815260200190815260200160002060008082016000905560018201600090556002820160006101000a81549073ffffffffffffffffffffffffffffffffffffffff02191690555050610c518383611076565b505050565b600080600c60008473ffffffffffffffffffffffffffffffffffffffff1673ffffffffffffffffffffffffffffffffffffffff168152602001908152602001600020549050600060015482610cab919061194e565b600660008673ffffffffffffffffffffffffffffffffffffffff1673ffffffffffffffffffffffffffffffffffffffff16815260200190815260200160002054610cf591906119a8565b9050600060035483610d07919061194e565b600760008773ffffffffffffffffffffffffffffffffffffffff1673ffffffffffffffffffffffffffffffffffffffff16815260200190815260200160002054610d5191906119a8565b9050610d7760015483610d64919061191d565b60035483610d72919061191d565b610d81565b9350505050919050565b600081831115610d915781610d93565b825b905092915050565b600060086000600e5481526020019081526020016000206000015490506000600182610dc791906118c7565b90506040518060600160405280838152602001600e5481526020018473ffffffffffffffffffffffffffffffffffffffff1681525060086000838152602001908152602001600020600082015181600001556020820151816001015560408201518160020160006101000a81548173ffffffffffffffffffffffffffffffffffffffff021916908373ffffffffffffffffffffffffffffffffffffffff1602179055509050508060086000848152602001908152602001600020600101819055508060086000600e54815260200190815260200160002060000181905550610eaf83826111f2565b505050565b610ebc610f06565b73ffffffffffffffffffffffffffffffffffffffff166108fc6005549081150290604051600060405180830381858888f19350505050158015610f03573d6000803e3d6000fd5b50565b60008060086000600d54815260200190815260200160002060010154905060006008600083815260200190815260200160002060020160009054906101000a900473ffffffffffffffffffffffffffffffffffffffff169050610f698183610b9d565b600c60008273ffffffffffffffffffffffffffffffffffffffff1673ffffffffffffffffffffffffffffffffffffffff1681526020019081526020016000206000815480929190610fb990611a2e565b9190505550600154600660008373ffffffffffffffffffffffffffffffffffffffff1673ffffffffffffffffffffffffffffffffffffffff168152602001908152602001600020600082825461100f91906119a8565b92505081905550600354600760008373ffffffffffffffffffffffffffffffffffffffff1673ffffffffffffffffffffffffffffffffffffffff168152602001908152602001600020600082825461106791906119a8565b92505081905550809250505090565b6000600b60008473ffffffffffffffffffffffffffffffffffffffff1673ffffffffffffffffffffffffffffffffffffffff168152602001908152602001600020600083815260200190815260200160002090508060010154600b60008573ffffffffffffffffffffffffffffffffffffffff1673ffffffffffffffffffffffffffffffffffffffff168152602001908152602001600020600083600001548152602001908152602001600020600101819055508060000154600b60008573ffffffffffffffffffffffffffffffffffffffff1673ffffffffffffffffffffffffffffffffffffffff16815260200190815260200160002060008360010154815260200190815260200160002060000181905550600b60008473ffffffffffffffffffffffffffffffffffffffff1673ffffffffffffffffffffffffffffffffffffffff168152602001908152602001600020600083815260200190815260200160002060008082016000905560018201600090555050505050565b6000600c60008473ffffffffffffffffffffffffffffffffffffffff1673ffffffffffffffffffffffffffffffffffffffff16815260200190815260200160002054141561133f576040518060400160405280600d548152602001600e54815250600b60008473ffffffffffffffffffffffffffffffffffffffff1673ffffffffffffffffffffffffffffffffffffffff1681526020019081526020016000206000600d54815260200190815260200160002060008201518160000155602082015181600101559050506040518060400160405280600d548152602001600e54815250600b60008473ffffffffffffffffffffffffffffffffffffffff1673ffffffffffffffffffffffffffffffffffffffff1681526020019081526020016000206000600e54815260200190815260200160002060008201518160000155602082015181600101559050505b6000600b60008473ffffffffffffffffffffffffffffffffffffffff1673ffffffffffffffffffffffffffffffffffffffff1681526020019081526020016000206000600e5481526020019081526020016000206000015490506040518060400160405280828152602001600e54815250600b60008573ffffffffffffffffffffffffffffffffffffffff1673ffffffffffffffffffffffffffffffffffffffff1681526020019081526020016000206000848152602001908152602001600020600082015181600001556020820151816001015590505081600b60008573ffffffffffffffffffffffffffffffffffffffff1673ffffffffffffffffffffffffffffffffffffffff16815260200190815260200160002060008381526020019081526020016000206001018190555081600b60008573ffffffffffffffffffffffffffffffffffffffff1673ffffffffffffffffffffffffffffffffffffffff1681526020019081526020016000206000600e54815260200190815260200160002060000181905550505050565b6000813590506114dd81611cc1565b92915050565b6000813590506114f281611cd8565b92915050565b60008083601f84011261150a57600080fd5b8235905067ffffffffffffffff81111561152357600080fd5b60208301915083600182028301111561153b57600080fd5b9250929050565b60008135905061155181611cef565b92915050565b6000806000806060858703121561156d57600080fd5b600061157b878288016114ce565b945050602061158c87828801611542565b935050604085013567ffffffffffffffff8111156115a957600080fd5b6115b5878288016114f8565b925092505092959194509250565b600080604083850312156115d657600080fd5b60006115e4858286016114e3565b92505060206115f585828601611542565b9150509250929050565b60006020828403121561161157600080fd5b600061161f84828501611542565b91505092915050565b6000806040838503121561163b57600080fd5b600061164985828601611542565b925050602061165a85828601611542565b9150509250929050565b61166d816119ee565b82525050565b6000611680600e836118b6565b915061168b82611b30565b602082019050919050565b60006116a36026836118b6565b91506116ae82611b59565b604082019050919050565b60006116c6601e836118b6565b91506116d182611ba8565b602082019050919050565b60006116e96029836118b6565b91506116f482611bd1565b604082019050919050565b600061170c601f836118b6565b915061171782611c20565b602082019050919050565b600061172f6026836118b6565b915061173a82611c49565b604082019050919050565b6000611752600d836118b6565b915061175d82611c98565b602082019050919050565b61177181611a24565b82525050565b600060208201905061178c6000830184611664565b92915050565b600060208201905081810360008301526117ab81611673565b9050919050565b600060208201905081810360008301526117cb81611696565b9050919050565b600060208201905081810360008301526117eb816116b9565b9050919050565b6000602082019050818103600083015261180b816116dc565b9050919050565b6000602082019050818103600083015261182b816116ff565b9050919050565b6000602082019050818103600083015261184b81611722565b9050919050565b6000602082019050818103600083015261186b81611745565b9050919050565b60006020820190506118876000830184611768565b92915050565b60006040820190506118a26000830185611768565b6118af6020830184611768565b9392505050565b600082825260208201905092915050565b60006118d282611a24565b91506118dd83611a24565b9250827fffffffffffffffffffffffffffffffffffffffffffffffffffffffffffffffff0382111561191257611911611ad2565b5b828201905092915050565b600061192882611a24565b915061193383611a24565b92508261194357611942611b01565b5b828204905092915050565b600061195982611a24565b915061196483611a24565b9250817fffffffffffffffffffffffffffffffffffffffffffffffffffffffffffffffff048311821515161561199d5761199c611ad2565b5b828202905092915050565b60006119b382611a24565b91506119be83611a24565b9250828210156119d1576119d0611ad2565b5b828203905092915050565b60006119e782611a04565b9050919050565b60008115159050919050565b6000819050919050565b600073ffffffffffffffffffffffffffffffffffffffff82169050919050565b6000819050919050565b6000611a3982611a24565b91506000821415611a4d57611a4c611ad2565b5b600182039050919050565b6000611a6382611a24565b91507fffffffffffffffffffffffffffffffffffffffffffffffffffffffffffffffff821415611a9657611a95611ad2565b5b600182019050919050565b6000611aac82611a24565b9150611ab783611a24565b925082611ac757611ac6611b01565b5b828206905092915050565b7f4e487b7100000000000000000000000000000000000000000000000000000000600052601160045260246000fd5b7f4e487b7100000000000000000000000000000000000000000000000000000000600052601260045260246000fd5b7f546f6f206d756368204c494e4b2e000000000000000000000000000000000000600082015250565b7f43616e6e6f742072656d6f7665206d6f726520656e7472696573207468616e2060008201527f65786973742e0000000000000000000000000000000000000000000000000000602082015250565b7f53686f756c642072656d6f7665206e6f6e2d7a65726f20616d6f756e742e0000600082015250565b7f53686f756c642072656d6f7665206e6f6e2d7a65726f20616d6f756e74206f6660008201527f20656e74726965732e0000000000000000000000000000000000000000000000602082015250565b7f4f6e6c7920565246436f6f7264696e61746f722063616e2066756c66696c6c00600082015250565b7f46756e6374696f6e2063616c6c6564206f757473696465204c494e4b20636f6e60008201527f74726163742e0000000000000000000000000000000000000000000000000000602082015250565b7f546f6f206d756368204554482e00000000000000000000000000000000000000600082015250565b611cca816119dc565b8114611cd557600080fd5b50565b611ce1816119fa565b8114611cec57600080fd5b50565b611cf881611a24565b8114611d0357600080fd5b5056fea26469706673582212201a7f568775378f7d8ac59c19dfe85cf32e92354db3e27485e73851057d30634064736f6c63430008040033",
  "linkReferences": {},
  "deployedLinkReferences": {}
}